{
  "_format": "hh-sol-artifact-1",
  "contractName": "Synapsic",
  "sourceName": "contracts/Brainscan.sol",
  "abi": [
    {
      "inputs": [
        {
          "internalType": "address",
          "name": "initialOwner",
          "type": "address"
        }
      ],
      "stateMutability": "nonpayable",
      "type": "constructor"
    },
    {
      "inputs": [
        {
          "internalType": "address",
          "name": "sender",
          "type": "address"
        },
        {
          "internalType": "uint256",
          "name": "tokenId",
          "type": "uint256"
        },
        {
          "internalType": "address",
          "name": "owner",
          "type": "address"
        }
      ],
      "name": "ERC721IncorrectOwner",
      "type": "error"
    },
    {
      "inputs": [
        {
          "internalType": "address",
          "name": "operator",
          "type": "address"
        },
        {
          "internalType": "uint256",
          "name": "tokenId",
          "type": "uint256"
        }
      ],
      "name": "ERC721InsufficientApproval",
      "type": "error"
    },
    {
      "inputs": [
        {
          "internalType": "address",
          "name": "approver",
          "type": "address"
        }
      ],
      "name": "ERC721InvalidApprover",
      "type": "error"
    },
    {
      "inputs": [
        {
          "internalType": "address",
          "name": "operator",
          "type": "address"
        }
      ],
      "name": "ERC721InvalidOperator",
      "type": "error"
    },
    {
      "inputs": [
        {
          "internalType": "address",
          "name": "owner",
          "type": "address"
        }
      ],
      "name": "ERC721InvalidOwner",
      "type": "error"
    },
    {
      "inputs": [
        {
          "internalType": "address",
          "name": "receiver",
          "type": "address"
        }
      ],
      "name": "ERC721InvalidReceiver",
      "type": "error"
    },
    {
      "inputs": [
        {
          "internalType": "address",
          "name": "sender",
          "type": "address"
        }
      ],
      "name": "ERC721InvalidSender",
      "type": "error"
    },
    {
      "inputs": [
        {
          "internalType": "uint256",
          "name": "tokenId",
          "type": "uint256"
        }
      ],
      "name": "ERC721NonexistentToken",
      "type": "error"
    },
    {
      "inputs": [
        {
          "internalType": "address",
          "name": "owner",
          "type": "address"
        }
      ],
      "name": "OwnableInvalidOwner",
      "type": "error"
    },
    {
      "inputs": [
        {
          "internalType": "address",
          "name": "account",
          "type": "address"
        }
      ],
      "name": "OwnableUnauthorizedAccount",
      "type": "error"
    },
    {
      "anonymous": false,
      "inputs": [
        {
          "indexed": true,
          "internalType": "address",
          "name": "owner",
          "type": "address"
        },
        {
          "indexed": true,
          "internalType": "address",
          "name": "approved",
          "type": "address"
        },
        {
          "indexed": true,
          "internalType": "uint256",
          "name": "tokenId",
          "type": "uint256"
        }
      ],
      "name": "Approval",
      "type": "event"
    },
    {
      "anonymous": false,
      "inputs": [
        {
          "indexed": true,
          "internalType": "address",
          "name": "owner",
          "type": "address"
        },
        {
          "indexed": true,
          "internalType": "address",
          "name": "operator",
          "type": "address"
        },
        {
          "indexed": false,
          "internalType": "bool",
          "name": "approved",
          "type": "bool"
        }
      ],
      "name": "ApprovalForAll",
      "type": "event"
    },
    {
      "anonymous": false,
      "inputs": [
        {
          "indexed": true,
          "internalType": "address",
          "name": "to",
          "type": "address"
        },
        {
          "indexed": true,
          "internalType": "uint256",
          "name": "tokenId",
          "type": "uint256"
        },
        {
          "indexed": false,
          "internalType": "string",
          "name": "brainscanData",
          "type": "string"
        }
      ],
      "name": "BrainscanNFTMinted",
      "type": "event"
    },
    {
      "anonymous": false,
      "inputs": [
        {
          "indexed": true,
          "internalType": "address",
          "name": "previousOwner",
          "type": "address"
        },
        {
          "indexed": true,
          "internalType": "address",
          "name": "newOwner",
          "type": "address"
        }
      ],
      "name": "OwnershipTransferred",
      "type": "event"
    },
    {
      "anonymous": false,
      "inputs": [
        {
          "indexed": true,
          "internalType": "address",
          "name": "from",
          "type": "address"
        },
        {
          "indexed": true,
          "internalType": "address",
          "name": "to",
          "type": "address"
        },
        {
          "indexed": true,
          "internalType": "uint256",
          "name": "tokenId",
          "type": "uint256"
        }
      ],
      "name": "Transfer",
      "type": "event"
    },
    {
      "inputs": [
        {
          "internalType": "address",
          "name": "_address",
          "type": "address"
        }
      ],
      "name": "addToWhitelist",
      "outputs": [],
      "stateMutability": "nonpayable",
      "type": "function"
    },
    {
      "inputs": [
        {
          "internalType": "address",
          "name": "to",
          "type": "address"
        },
        {
          "internalType": "uint256",
          "name": "tokenId",
          "type": "uint256"
        }
      ],
      "name": "approve",
      "outputs": [],
      "stateMutability": "nonpayable",
      "type": "function"
    },
    {
      "inputs": [
        {
          "internalType": "address",
          "name": "owner",
          "type": "address"
        }
      ],
      "name": "balanceOf",
      "outputs": [
        {
          "internalType": "uint256",
          "name": "",
          "type": "uint256"
        }
      ],
      "stateMutability": "view",
      "type": "function"
    },
    {
      "inputs": [
        {
          "internalType": "uint256",
          "name": "tokenId",
          "type": "uint256"
        }
      ],
      "name": "getApproved",
      "outputs": [
        {
          "internalType": "address",
          "name": "",
          "type": "address"
        }
      ],
      "stateMutability": "view",
      "type": "function"
    },
    {
      "inputs": [
        {
          "internalType": "address",
          "name": "owner",
          "type": "address"
        },
        {
          "internalType": "address",
          "name": "operator",
          "type": "address"
        }
      ],
      "name": "isApprovedForAll",
      "outputs": [
        {
          "internalType": "bool",
          "name": "",
          "type": "bool"
        }
      ],
      "stateMutability": "view",
      "type": "function"
    },
    {
      "inputs": [
        {
          "internalType": "address",
          "name": "_address",
          "type": "address"
        }
      ],
      "name": "isWhitelisted",
      "outputs": [
        {
          "internalType": "bool",
          "name": "",
          "type": "bool"
        }
      ],
      "stateMutability": "view",
      "type": "function"
    },
    {
      "inputs": [
        {
          "internalType": "address",
          "name": "to",
          "type": "address"
        },
        {
          "internalType": "uint256",
          "name": "tokenId",
          "type": "uint256"
        },
        {
          "internalType": "string",
          "name": "brainscanData",
          "type": "string"
        }
      ],
      "name": "mintBrainscanNFT",
      "outputs": [],
      "stateMutability": "nonpayable",
      "type": "function"
    },
    {
      "inputs": [],
      "name": "name",
      "outputs": [
        {
          "internalType": "string",
          "name": "",
          "type": "string"
        }
      ],
      "stateMutability": "view",
      "type": "function"
    },
    {
      "inputs": [],
      "name": "owner",
      "outputs": [
        {
          "internalType": "address",
          "name": "",
          "type": "address"
        }
      ],
      "stateMutability": "view",
      "type": "function"
    },
    {
      "inputs": [
        {
          "internalType": "uint256",
          "name": "tokenId",
          "type": "uint256"
        }
      ],
      "name": "ownerOf",
      "outputs": [
        {
          "internalType": "address",
          "name": "",
          "type": "address"
        }
      ],
      "stateMutability": "view",
      "type": "function"
    },
    {
      "inputs": [
        {
          "internalType": "address",
          "name": "_address",
          "type": "address"
        }
      ],
      "name": "removeFromWhitelist",
      "outputs": [],
      "stateMutability": "nonpayable",
      "type": "function"
    },
    {
      "inputs": [],
      "name": "renounceOwnership",
      "outputs": [],
      "stateMutability": "nonpayable",
      "type": "function"
    },
    {
      "inputs": [
        {
          "internalType": "address",
          "name": "to",
          "type": "address"
        },
        {
          "internalType": "uint256",
          "name": "tokenId",
          "type": "uint256"
        }
      ],
      "name": "safeMint",
      "outputs": [],
      "stateMutability": "nonpayable",
      "type": "function"
    },
    {
      "inputs": [
        {
          "internalType": "address",
          "name": "from",
          "type": "address"
        },
        {
          "internalType": "address",
          "name": "to",
          "type": "address"
        },
        {
          "internalType": "uint256",
          "name": "tokenId",
          "type": "uint256"
        }
      ],
      "name": "safeTransferFrom",
      "outputs": [],
      "stateMutability": "nonpayable",
      "type": "function"
    },
    {
      "inputs": [
        {
          "internalType": "address",
          "name": "from",
          "type": "address"
        },
        {
          "internalType": "address",
          "name": "to",
          "type": "address"
        },
        {
          "internalType": "uint256",
          "name": "tokenId",
          "type": "uint256"
        },
        {
          "internalType": "bytes",
          "name": "data",
          "type": "bytes"
        }
      ],
      "name": "safeTransferFrom",
      "outputs": [],
      "stateMutability": "nonpayable",
      "type": "function"
    },
    {
      "inputs": [
        {
          "internalType": "address",
          "name": "operator",
          "type": "address"
        },
        {
          "internalType": "bool",
          "name": "approved",
          "type": "bool"
        }
      ],
      "name": "setApprovalForAll",
      "outputs": [],
      "stateMutability": "nonpayable",
      "type": "function"
    },
    {
      "inputs": [
        {
          "internalType": "bytes4",
          "name": "interfaceId",
          "type": "bytes4"
        }
      ],
      "name": "supportsInterface",
      "outputs": [
        {
          "internalType": "bool",
          "name": "",
          "type": "bool"
        }
      ],
      "stateMutability": "view",
      "type": "function"
    },
    {
      "inputs": [],
      "name": "symbol",
      "outputs": [
        {
          "internalType": "string",
          "name": "",
          "type": "string"
        }
      ],
      "stateMutability": "view",
      "type": "function"
    },
    {
      "inputs": [
        {
          "internalType": "uint256",
          "name": "tokenId",
          "type": "uint256"
        }
      ],
      "name": "tokenURI",
      "outputs": [
        {
          "internalType": "string",
          "name": "",
          "type": "string"
        }
      ],
      "stateMutability": "view",
      "type": "function"
    },
    {
      "inputs": [
        {
          "internalType": "address",
          "name": "from",
          "type": "address"
        },
        {
          "internalType": "address",
          "name": "to",
          "type": "address"
        },
        {
          "internalType": "uint256",
          "name": "tokenId",
          "type": "uint256"
        }
      ],
      "name": "transferFrom",
      "outputs": [],
      "stateMutability": "nonpayable",
      "type": "function"
    },
    {
      "inputs": [
        {
          "internalType": "address",
          "name": "newOwner",
          "type": "address"
        }
      ],
      "name": "transferOwnership",
      "outputs": [],
      "stateMutability": "nonpayable",
      "type": "function"
    }
  ],
  "bytecode": "0x60806040523480156200001157600080fd5b5060405162002e7138038062002e71833981810160405281019062000037919062000288565b806040518060400160405280600881526020017f53796e61707369630000000000000000000000000000000000000000000000008152506040518060400160405280600581526020017f425241494e0000000000000000000000000000000000000000000000000000008152508160009081620000b5919062000534565b508060019081620000c7919062000534565b505050600073ffffffffffffffffffffffffffffffffffffffff168173ffffffffffffffffffffffffffffffffffffffff16036200013f5760006040517f1e4fbdf70000000000000000000000000000000000000000000000000000000081526004016200013691906200062c565b60405180910390fd5b62000150816200015860201b60201c565b505062000649565b6000600660009054906101000a900473ffffffffffffffffffffffffffffffffffffffff16905081600660006101000a81548173ffffffffffffffffffffffffffffffffffffffff021916908373ffffffffffffffffffffffffffffffffffffffff1602179055508173ffffffffffffffffffffffffffffffffffffffff168173ffffffffffffffffffffffffffffffffffffffff167f8be0079c531659141344cd1fd0a4f28419497f9722a3daafe3b4186f6b6457e060405160405180910390a35050565b600080fd5b600073ffffffffffffffffffffffffffffffffffffffff82169050919050565b6000620002508262000223565b9050919050565b620002628162000243565b81146200026e57600080fd5b50565b600081519050620002828162000257565b92915050565b600060208284031215620002a157620002a06200021e565b5b6000620002b18482850162000271565b91505092915050565b600081519050919050565b7f4e487b7100000000000000000000000000000000000000000000000000000000600052604160045260246000fd5b7f4e487b7100000000000000000000000000000000000000000000000000000000600052602260045260246000fd5b600060028204905060018216806200033c57607f821691505b602082108103620003525762000351620002f4565b5b50919050565b60008190508160005260206000209050919050565b60006020601f8301049050919050565b600082821b905092915050565b600060088302620003bc7fffffffffffffffffffffffffffffffffffffffffffffffffffffffffffffffff826200037d565b620003c886836200037d565b95508019841693508086168417925050509392505050565b6000819050919050565b6000819050919050565b6000620004156200040f6200040984620003e0565b620003ea565b620003e0565b9050919050565b6000819050919050565b6200043183620003f4565b6200044962000440826200041c565b8484546200038a565b825550505050565b600090565b6200046062000451565b6200046d81848462000426565b505050565b5b8181101562000495576200048960008262000456565b60018101905062000473565b5050565b601f821115620004e457620004ae8162000358565b620004b9846200036d565b81016020851015620004c9578190505b620004e1620004d8856200036d565b83018262000472565b50505b505050565b600082821c905092915050565b60006200050960001984600802620004e9565b1980831691505092915050565b6000620005248383620004f6565b9150826002028217905092915050565b6200053f82620002ba565b67ffffffffffffffff8111156200055b576200055a620002c5565b5b62000567825462000323565b6200057482828562000499565b600060209050601f831160018114620005ac576000841562000597578287015190505b620005a3858262000516565b86555062000613565b601f198416620005bc8662000358565b60005b82811015620005e657848901518255600182019150602085019450602081019050620005bf565b8683101562000606578489015162000602601f891682620004f6565b8355505b6001600288020188555050505b505050505050565b620006268162000243565b82525050565b60006020820190506200064360008301846200061b565b92915050565b61281880620006596000396000f3fe608060405234801561001057600080fd5b50600436106101375760003560e01c8063715018a6116100b8578063a22cb4651161007c578063a22cb46514610338578063b88d4fde14610354578063c87b56dd14610370578063e43252d7146103a0578063e985e9c5146103bc578063f2fde38b146103ec57610137565b8063715018a6146102ba5780638ab1d681146102c45780638da5cb5b146102e057806395d89b41146102fe578063a14481941461031c57610137565b8063291e4552116100ff578063291e4552146101f25780633af32abf1461020e57806342842e0e1461023e5780636352211e1461025a57806370a082311461028a57610137565b806301ffc9a71461013c57806306fdde031461016c578063081812fc1461018a578063095ea7b3146101ba57806323b872dd146101d6575b600080fd5b61015660048036038101906101519190611d4d565b610408565b6040516101639190611d95565b60405180910390f35b6101746104ea565b6040516101819190611e40565b60405180910390f35b6101a4600480360381019061019f9190611e98565b61057c565b6040516101b19190611f06565b60405180910390f35b6101d460048036038101906101cf9190611f4d565b610598565b005b6101f060048036038101906101eb9190611f8d565b6105ae565b005b61020c60048036038101906102079190612115565b6106b0565b005b61022860048036038101906102239190612184565b610756565b6040516102359190611d95565b60405180910390f35b61025860048036038101906102539190611f8d565b610773565b005b610274600480360381019061026f9190611e98565b610793565b6040516102819190611f06565b60405180910390f35b6102a4600480360381019061029f9190612184565b6107a5565b6040516102b191906121c0565b60405180910390f35b6102c261085f565b005b6102de60048036038101906102d99190612184565b610873565b005b6102e86108e6565b6040516102f59190611f06565b60405180910390f35b610306610910565b6040516103139190611e40565b60405180910390f35b61033660048036038101906103319190611f4d565b6109a2565b005b610352600480360381019061034d9190612207565b6109b8565b005b61036e600480360381019061036991906122e8565b6109ce565b005b61038a60048036038101906103859190611e98565b6109eb565b6040516103979190611e40565b60405180910390f35b6103ba60048036038101906103b59190612184565b610a54565b005b6103d660048036038101906103d1919061236b565b610ac8565b6040516103e39190611d95565b60405180910390f35b61040660048036038101906104019190612184565b610b5c565b005b60007f80ac58cd000000000000000000000000000000000000000000000000000000007bffffffffffffffffffffffffffffffffffffffffffffffffffffffff1916827bffffffffffffffffffffffffffffffffffffffffffffffffffffffff191614806104d357507f5b5e139f000000000000000000000000000000000000000000000000000000007bffffffffffffffffffffffffffffffffffffffffffffffffffffffff1916827bffffffffffffffffffffffffffffffffffffffffffffffffffffffff1916145b806104e357506104e282610be2565b5b9050919050565b6060600080546104f9906123da565b80601f0160208091040260200160405190810160405280929190818152602001828054610525906123da565b80156105725780601f1061054757610100808354040283529160200191610572565b820191906000526020600020905b81548152906001019060200180831161055557829003601f168201915b5050505050905090565b600061058782610c4c565b5061059182610cd4565b9050919050565b6105aa82826105a5610d11565b610d19565b5050565b600073ffffffffffffffffffffffffffffffffffffffff168273ffffffffffffffffffffffffffffffffffffffff16036106205760006040517f64a0ae920000000000000000000000000000000000000000000000000000000081526004016106179190611f06565b60405180910390fd5b6000610634838361062f610d11565b610d2b565b90508373ffffffffffffffffffffffffffffffffffffffff168173ffffffffffffffffffffffffffffffffffffffff16146106aa578382826040517f64283d7b0000000000000000000000000000000000000000000000000000000081526004016106a19392919061240b565b60405180910390fd5b50505050565b6106b933610756565b6106f8576040517f08c379a00000000000000000000000000000000000000000000000000000000081526004016106ef9061248e565b60405180910390fd5b6107028383610f45565b818373ffffffffffffffffffffffffffffffffffffffff167f10aeefb702c72887ea1e7064b3c3c903f91d3431a49420fb19a3cc0d9a2f9ace836040516107499190611e40565b60405180910390a3505050565b600061076c826007610f6390919063ffffffff16565b9050919050565b61078e838383604051806020016040528060008152506109ce565b505050565b600061079e82610c4c565b9050919050565b60008073ffffffffffffffffffffffffffffffffffffffff168273ffffffffffffffffffffffffffffffffffffffff16036108185760006040517f89c62b6400000000000000000000000000000000000000000000000000000000815260040161080f9190611f06565b60405180910390fd5b600360008373ffffffffffffffffffffffffffffffffffffffff1673ffffffffffffffffffffffffffffffffffffffff168152602001908152602001600020549050919050565b610867610f93565b610871600061101a565b565b61087b610f93565b61088f816007610f6390919063ffffffff16565b6108ce576040517f08c379a00000000000000000000000000000000000000000000000000000000081526004016108c5906124fa565b60405180910390fd5b6108e28160076110e090919063ffffffff16565b5050565b6000600660009054906101000a900473ffffffffffffffffffffffffffffffffffffffff16905090565b60606001805461091f906123da565b80601f016020809104026020016040519081016040528092919081815260200182805461094b906123da565b80156109985780601f1061096d57610100808354040283529160200191610998565b820191906000526020600020905b81548152906001019060200180831161097b57829003601f168201915b5050505050905090565b6109aa610f93565b6109b48282610f45565b5050565b6109ca6109c3610d11565b8383611110565b5050565b6109d98484846105ae565b6109e58484848461127f565b50505050565b60606109f682610c4c565b506000610a01611436565b90506000815111610a215760405180602001604052806000815250610a4c565b80610a2b8461144d565b604051602001610a3c929190612556565b6040516020818303038152906040525b915050919050565b610a5c610f93565b610a70816007610f6390919063ffffffff16565b15610ab0576040517f08c379a0000000000000000000000000000000000000000000000000000000008152600401610aa7906125c6565b60405180910390fd5b610ac481600761151b90919063ffffffff16565b5050565b6000600560008473ffffffffffffffffffffffffffffffffffffffff1673ffffffffffffffffffffffffffffffffffffffff16815260200190815260200160002060008373ffffffffffffffffffffffffffffffffffffffff1673ffffffffffffffffffffffffffffffffffffffff16815260200190815260200160002060009054906101000a900460ff16905092915050565b610b64610f93565b600073ffffffffffffffffffffffffffffffffffffffff168173ffffffffffffffffffffffffffffffffffffffff1603610bd65760006040517f1e4fbdf7000000000000000000000000000000000000000000000000000000008152600401610bcd9190611f06565b60405180910390fd5b610bdf8161101a565b50565b60007f01ffc9a7000000000000000000000000000000000000000000000000000000007bffffffffffffffffffffffffffffffffffffffffffffffffffffffff1916827bffffffffffffffffffffffffffffffffffffffffffffffffffffffff1916149050919050565b600080610c588361154b565b9050600073ffffffffffffffffffffffffffffffffffffffff168173ffffffffffffffffffffffffffffffffffffffff1603610ccb57826040517f7e273289000000000000000000000000000000000000000000000000000000008152600401610cc291906121c0565b60405180910390fd5b80915050919050565b60006004600083815260200190815260200160002060009054906101000a900473ffffffffffffffffffffffffffffffffffffffff169050919050565b600033905090565b610d268383836001611588565b505050565b600080610d378461154b565b9050600073ffffffffffffffffffffffffffffffffffffffff168373ffffffffffffffffffffffffffffffffffffffff1614610d7957610d7881848661174d565b5b600073ffffffffffffffffffffffffffffffffffffffff168173ffffffffffffffffffffffffffffffffffffffff1614610e0a57610dbb600085600080611588565b6001600360008373ffffffffffffffffffffffffffffffffffffffff1673ffffffffffffffffffffffffffffffffffffffff168152602001908152602001600020600082825403925050819055505b600073ffffffffffffffffffffffffffffffffffffffff168573ffffffffffffffffffffffffffffffffffffffff1614610e8d576001600360008773ffffffffffffffffffffffffffffffffffffffff1673ffffffffffffffffffffffffffffffffffffffff168152602001908152602001600020600082825401925050819055505b846002600086815260200190815260200160002060006101000a81548173ffffffffffffffffffffffffffffffffffffffff021916908373ffffffffffffffffffffffffffffffffffffffff160217905550838573ffffffffffffffffffffffffffffffffffffffff168273ffffffffffffffffffffffffffffffffffffffff167fddf252ad1be2c89b69c2b068fc378daa952ba7f163c4a11628f55a4df523b3ef60405160405180910390a4809150509392505050565b610f5f828260405180602001604052806000815250611811565b5050565b6000610f8b836000018373ffffffffffffffffffffffffffffffffffffffff1660001b61182d565b905092915050565b610f9b610d11565b73ffffffffffffffffffffffffffffffffffffffff16610fb96108e6565b73ffffffffffffffffffffffffffffffffffffffff161461101857610fdc610d11565b6040517f118cdaa700000000000000000000000000000000000000000000000000000000815260040161100f9190611f06565b60405180910390fd5b565b6000600660009054906101000a900473ffffffffffffffffffffffffffffffffffffffff16905081600660006101000a81548173ffffffffffffffffffffffffffffffffffffffff021916908373ffffffffffffffffffffffffffffffffffffffff1602179055508173ffffffffffffffffffffffffffffffffffffffff168173ffffffffffffffffffffffffffffffffffffffff167f8be0079c531659141344cd1fd0a4f28419497f9722a3daafe3b4186f6b6457e060405160405180910390a35050565b6000611108836000018373ffffffffffffffffffffffffffffffffffffffff1660001b611850565b905092915050565b600073ffffffffffffffffffffffffffffffffffffffff168273ffffffffffffffffffffffffffffffffffffffff160361118157816040517f5b08ba180000000000000000000000000000000000000000000000000000000081526004016111789190611f06565b60405180910390fd5b80600560008573ffffffffffffffffffffffffffffffffffffffff1673ffffffffffffffffffffffffffffffffffffffff16815260200190815260200160002060008473ffffffffffffffffffffffffffffffffffffffff1673ffffffffffffffffffffffffffffffffffffffff16815260200190815260200160002060006101000a81548160ff0219169083151502179055508173ffffffffffffffffffffffffffffffffffffffff168373ffffffffffffffffffffffffffffffffffffffff167f17307eab39ab6107e8899845ad3d59bd9653f200f220920489ca2b5937696c31836040516112729190611d95565b60405180910390a3505050565b60008373ffffffffffffffffffffffffffffffffffffffff163b1115611430578273ffffffffffffffffffffffffffffffffffffffff1663150b7a026112c3610d11565b8685856040518563ffffffff1660e01b81526004016112e5949392919061263b565b6020604051808303816000875af192505050801561132157506040513d601f19601f8201168201806040525081019061131e919061269c565b60015b6113a5573d8060008114611351576040519150601f19603f3d011682016040523d82523d6000602084013e611356565b606091505b50600081510361139d57836040517f64a0ae920000000000000000000000000000000000000000000000000000000081526004016113949190611f06565b60405180910390fd5b805181602001fd5b63150b7a0260e01b7bffffffffffffffffffffffffffffffffffffffffffffffffffffffff1916817bffffffffffffffffffffffffffffffffffffffffffffffffffffffff19161461142e57836040517f64a0ae920000000000000000000000000000000000000000000000000000000081526004016114259190611f06565b60405180910390fd5b505b50505050565b606060405180602001604052806000815250905090565b60606000600161145c84611964565b01905060008167ffffffffffffffff81111561147b5761147a611fea565b5b6040519080825280601f01601f1916602001820160405280156114ad5781602001600182028036833780820191505090505b509050600082602001820190505b600115611510578080600190039150507f3031323334353637383961626364656600000000000000000000000000000000600a86061a8153600a8581611504576115036126c9565b5b049450600085036114bb575b819350505050919050565b6000611543836000018373ffffffffffffffffffffffffffffffffffffffff1660001b611ab7565b905092915050565b60006002600083815260200190815260200160002060009054906101000a900473ffffffffffffffffffffffffffffffffffffffff169050919050565b80806115c15750600073ffffffffffffffffffffffffffffffffffffffff168273ffffffffffffffffffffffffffffffffffffffff1614155b156116f55760006115d184610c4c565b9050600073ffffffffffffffffffffffffffffffffffffffff168373ffffffffffffffffffffffffffffffffffffffff161415801561163c57508273ffffffffffffffffffffffffffffffffffffffff168173ffffffffffffffffffffffffffffffffffffffff1614155b801561164f575061164d8184610ac8565b155b1561169157826040517fa9fbf51f0000000000000000000000000000000000000000000000000000000081526004016116889190611f06565b60405180910390fd5b81156116f357838573ffffffffffffffffffffffffffffffffffffffff168273ffffffffffffffffffffffffffffffffffffffff167f8c5be1e5ebec7d5bd14f71427d1e84f3dd0314c0f7b2291e5b200ac8c7c3b92560405160405180910390a45b505b836004600085815260200190815260200160002060006101000a81548173ffffffffffffffffffffffffffffffffffffffff021916908373ffffffffffffffffffffffffffffffffffffffff16021790555050505050565b611758838383611b27565b61180c57600073ffffffffffffffffffffffffffffffffffffffff168373ffffffffffffffffffffffffffffffffffffffff16036117cd57806040517f7e2732890000000000000000000000000000000000000000000000000000000081526004016117c491906121c0565b60405180910390fd5b81816040517f177e802f0000000000000000000000000000000000000000000000000000000081526004016118039291906126f8565b60405180910390fd5b505050565b61181b8383611be8565b611828600084848461127f565b505050565b600080836001016000848152602001908152602001600020541415905092915050565b600080836001016000848152602001908152602001600020549050600081146119585760006001826118829190612750565b905060006001866000018054905061189a9190612750565b90508082146119095760008660000182815481106118bb576118ba612784565b5b90600052602060002001549050808760000184815481106118df576118de612784565b5b90600052602060002001819055508387600101600083815260200190815260200160002081905550505b8560000180548061191d5761191c6127b3565b5b60019003818190600052602060002001600090559055856001016000868152602001908152602001600020600090556001935050505061195e565b60009150505b92915050565b600080600090507a184f03e93ff9f4daa797ed6e38ed64bf6a1f01000000000000000083106119c2577a184f03e93ff9f4daa797ed6e38ed64bf6a1f01000000000000000083816119b8576119b76126c9565b5b0492506040810190505b6d04ee2d6d415b85acef810000000083106119ff576d04ee2d6d415b85acef810000000083816119f5576119f46126c9565b5b0492506020810190505b662386f26fc100008310611a2e57662386f26fc100008381611a2457611a236126c9565b5b0492506010810190505b6305f5e1008310611a57576305f5e1008381611a4d57611a4c6126c9565b5b0492506008810190505b6127108310611a7c576127108381611a7257611a716126c9565b5b0492506004810190505b60648310611a9f5760648381611a9557611a946126c9565b5b0492506002810190505b600a8310611aae576001810190505b80915050919050565b6000611ac3838361182d565b611b1c578260000182908060018154018082558091505060019003906000526020600020016000909190919091505582600001805490508360010160008481526020019081526020016000208190555060019050611b21565b600090505b92915050565b60008073ffffffffffffffffffffffffffffffffffffffff168373ffffffffffffffffffffffffffffffffffffffff1614158015611bdf57508273ffffffffffffffffffffffffffffffffffffffff168473ffffffffffffffffffffffffffffffffffffffff161480611ba05750611b9f8484610ac8565b5b80611bde57508273ffffffffffffffffffffffffffffffffffffffff16611bc683610cd4565b73ffffffffffffffffffffffffffffffffffffffff16145b5b90509392505050565b600073ffffffffffffffffffffffffffffffffffffffff168273ffffffffffffffffffffffffffffffffffffffff1603611c5a5760006040517f64a0ae92000000000000000000000000000000000000000000000000000000008152600401611c519190611f06565b60405180910390fd5b6000611c6883836000610d2b565b9050600073ffffffffffffffffffffffffffffffffffffffff168173ffffffffffffffffffffffffffffffffffffffff1614611cdc5760006040517f73c6ac6e000000000000000000000000000000000000000000000000000000008152600401611cd39190611f06565b60405180910390fd5b505050565b6000604051905090565b600080fd5b600080fd5b60007fffffffff0000000000000000000000000000000000000000000000000000000082169050919050565b611d2a81611cf5565b8114611d3557600080fd5b50565b600081359050611d4781611d21565b92915050565b600060208284031215611d6357611d62611ceb565b5b6000611d7184828501611d38565b91505092915050565b60008115159050919050565b611d8f81611d7a565b82525050565b6000602082019050611daa6000830184611d86565b92915050565b600081519050919050565b600082825260208201905092915050565b60005b83811015611dea578082015181840152602081019050611dcf565b60008484015250505050565b6000601f19601f8301169050919050565b6000611e1282611db0565b611e1c8185611dbb565b9350611e2c818560208601611dcc565b611e3581611df6565b840191505092915050565b60006020820190508181036000830152611e5a8184611e07565b905092915050565b6000819050919050565b611e7581611e62565b8114611e8057600080fd5b50565b600081359050611e9281611e6c565b92915050565b600060208284031215611eae57611ead611ceb565b5b6000611ebc84828501611e83565b91505092915050565b600073ffffffffffffffffffffffffffffffffffffffff82169050919050565b6000611ef082611ec5565b9050919050565b611f0081611ee5565b82525050565b6000602082019050611f1b6000830184611ef7565b92915050565b611f2a81611ee5565b8114611f3557600080fd5b50565b600081359050611f4781611f21565b92915050565b60008060408385031215611f6457611f63611ceb565b5b6000611f7285828601611f38565b9250506020611f8385828601611e83565b9150509250929050565b600080600060608486031215611fa657611fa5611ceb565b5b6000611fb486828701611f38565b9350506020611fc586828701611f38565b9250506040611fd686828701611e83565b9150509250925092565b600080fd5b600080fd5b7f4e487b7100000000000000000000000000000000000000000000000000000000600052604160045260246000fd5b61202282611df6565b810181811067ffffffffffffffff8211171561204157612040611fea565b5b80604052505050565b6000612054611ce1565b90506120608282612019565b919050565b600067ffffffffffffffff8211156120805761207f611fea565b5b61208982611df6565b9050602081019050919050565b82818337600083830152505050565b60006120b86120b384612065565b61204a565b9050828152602081018484840111156120d4576120d3611fe5565b5b6120df848285612096565b509392505050565b600082601f8301126120fc576120fb611fe0565b5b813561210c8482602086016120a5565b91505092915050565b60008060006060848603121561212e5761212d611ceb565b5b600061213c86828701611f38565b935050602061214d86828701611e83565b925050604084013567ffffffffffffffff81111561216e5761216d611cf0565b5b61217a868287016120e7565b9150509250925092565b60006020828403121561219a57612199611ceb565b5b60006121a884828501611f38565b91505092915050565b6121ba81611e62565b82525050565b60006020820190506121d560008301846121b1565b92915050565b6121e481611d7a565b81146121ef57600080fd5b50565b600081359050612201816121db565b92915050565b6000806040838503121561221e5761221d611ceb565b5b600061222c85828601611f38565b925050602061223d858286016121f2565b9150509250929050565b600067ffffffffffffffff82111561226257612261611fea565b5b61226b82611df6565b9050602081019050919050565b600061228b61228684612247565b61204a565b9050828152602081018484840111156122a7576122a6611fe5565b5b6122b2848285612096565b509392505050565b600082601f8301126122cf576122ce611fe0565b5b81356122df848260208601612278565b91505092915050565b6000806000806080858703121561230257612301611ceb565b5b600061231087828801611f38565b945050602061232187828801611f38565b935050604061233287828801611e83565b925050606085013567ffffffffffffffff81111561235357612352611cf0565b5b61235f878288016122ba565b91505092959194509250565b6000806040838503121561238257612381611ceb565b5b600061239085828601611f38565b92505060206123a185828601611f38565b9150509250929050565b7f4e487b7100000000000000000000000000000000000000000000000000000000600052602260045260246000fd5b600060028204905060018216806123f257607f821691505b602082108103612405576124046123ab565b5b50919050565b60006060820190506124206000830186611ef7565b61242d60208301856121b1565b61243a6040830184611ef7565b949350505050565b7f43616c6c6572206973206e6f742077686974656c697374656400000000000000600082015250565b6000612478601983611dbb565b915061248382612442565b602082019050919050565b600060208201905081810360008301526124a78161246b565b9050919050565b7f41646472657373206973206e6f742077686974656c6973746564000000000000600082015250565b60006124e4601a83611dbb565b91506124ef826124ae565b602082019050919050565b60006020820190508181036000830152612513816124d7565b9050919050565b600081905092915050565b600061253082611db0565b61253a818561251a565b935061254a818560208601611dcc565b80840191505092915050565b60006125628285612525565b915061256e8284612525565b91508190509392505050565b7f4164647265737320697320616c72656164792077686974656c69737465640000600082015250565b60006125b0601e83611dbb565b91506125bb8261257a565b602082019050919050565b600060208201905081810360008301526125df816125a3565b9050919050565b600081519050919050565b600082825260208201905092915050565b600061260d826125e6565b61261781856125f1565b9350612627818560208601611dcc565b61263081611df6565b840191505092915050565b60006080820190506126506000830187611ef7565b61265d6020830186611ef7565b61266a60408301856121b1565b818103606083015261267c8184612602565b905095945050505050565b60008151905061269681611d21565b92915050565b6000602082840312156126b2576126b1611ceb565b5b60006126c084828501612687565b91505092915050565b7f4e487b7100000000000000000000000000000000000000000000000000000000600052601260045260246000fd5b600060408201905061270d6000830185611ef7565b61271a60208301846121b1565b9392505050565b7f4e487b7100000000000000000000000000000000000000000000000000000000600052601160045260246000fd5b600061275b82611e62565b915061276683611e62565b925082820390508181111561277e5761277d612721565b5b92915050565b7f4e487b7100000000000000000000000000000000000000000000000000000000600052603260045260246000fd5b7f4e487b7100000000000000000000000000000000000000000000000000000000600052603160045260246000fdfea2646970667358221220751a91b155a52130d2b6e1ffea282ea5caf680ac37c34819df0349558b85e6bb64736f6c63430008170033",
  "linkReferences": {},
  "deployedLinkReferences": {}
}